{
  "contractName": "Donation",
  "abi": [
    {
      "inputs": [],
      "stateMutability": "nonpayable",
      "type": "constructor"
    },
    {
      "anonymous": false,
      "inputs": [
        {
          "indexed": true,
          "internalType": "address",
          "name": "_donator",
          "type": "address"
        },
        {
          "indexed": false,
          "internalType": "uint256",
          "name": "_donationAmount",
          "type": "uint256"
        }
      ],
      "name": "LogDonation",
      "type": "event"
    },
    {
      "anonymous": false,
      "inputs": [
        {
          "indexed": true,
          "internalType": "address",
          "name": "_withdrawer",
          "type": "address"
        },
        {
          "indexed": false,
          "internalType": "uint256",
          "name": "amount",
          "type": "uint256"
        }
      ],
      "name": "LogWithdrawal",
      "type": "event"
    },
    {
      "inputs": [
        {
          "internalType": "address",
          "name": "",
          "type": "address"
        }
      ],
      "name": "donations",
      "outputs": [
        {
          "internalType": "uint256",
          "name": "",
          "type": "uint256"
        }
      ],
      "stateMutability": "view",
      "type": "function",
      "constant": true
    },
    {
      "inputs": [],
      "name": "fetchOwner",
      "outputs": [
        {
          "internalType": "address",
          "name": "",
          "type": "address"
        }
      ],
      "stateMutability": "view",
      "type": "function",
      "constant": true
    },
    {
      "inputs": [],
      "name": "fetchTotal",
      "outputs": [
        {
          "internalType": "uint256",
          "name": "",
          "type": "uint256"
        }
      ],
      "stateMutability": "view",
      "type": "function",
      "constant": true
    },
    {
      "inputs": [],
      "name": "makeDonation",
      "outputs": [
        {
          "internalType": "bool",
          "name": "",
          "type": "bool"
        }
      ],
      "stateMutability": "payable",
      "type": "function",
      "payable": true
    },
    {
      "inputs": [],
      "name": "makeWithdrawal",
      "outputs": [
        {
          "internalType": "bool",
          "name": "",
          "type": "bool"
        }
      ],
      "stateMutability": "nonpayable",
      "type": "function"
    }
  ],
  "bytecode": "0x608060405234801561001057600080fd5b50336000806101000a81548173ffffffffffffffffffffffffffffffffffffffff021916908373ffffffffffffffffffffffffffffffffffffffff160217905550610944806100606000396000f3fe60806040526004361061004a5760003560e01c80632f8407c21461004f5780633951b4c91461007a57806340ea0a94146100a5578063cc6cb19a146100c3578063dbf6b90414610100575b600080fd5b34801561005b57600080fd5b5061006461012b565b6040516100719190610553565b60405180910390f35b34801561008657600080fd5b5061008f610154565b60405161009c9190610589565b60405180910390f35b6100ad610318565b6040516100ba9190610589565b60405180910390f35b3480156100cf57600080fd5b506100ea60048036038101906100e591906105d5565b6104f0565b6040516100f7919061061b565b60405180910390f35b34801561010c57600080fd5b50610115610508565b604051610122919061061b565b60405180910390f35b60008060009054906101000a900473ffffffffffffffffffffffffffffffffffffffff16905090565b60008060009054906101000a900473ffffffffffffffffffffffffffffffffffffffff1673ffffffffffffffffffffffffffffffffffffffff163373ffffffffffffffffffffffffffffffffffffffff16146101e5576040517f08c379a00000000000000000000000000000000000000000000000000000000081526004016101dc906106b9565b60405180910390fd5b60006002549050600060028190555060008060009054906101000a900473ffffffffffffffffffffffffffffffffffffffff1673ffffffffffffffffffffffffffffffffffffffff168260405161023b9061070a565b60006040518083038185875af1925050503d8060008114610278576040519150601f19603f3d011682016040523d82523d6000602084013e61027d565b606091505b50509050806102c1576040517f08c379a00000000000000000000000000000000000000000000000000000000081526004016102b89061076b565b60405180910390fd5b3373ffffffffffffffffffffffffffffffffffffffff167fb4214c8c54fc7442f36d3682f59aebaf09358a4431835b30efb29d52cf9e1e9183604051610307919061061b565b60405180910390a260019250505090565b60008060009054906101000a900473ffffffffffffffffffffffffffffffffffffffff1673ffffffffffffffffffffffffffffffffffffffff163373ffffffffffffffffffffffffffffffffffffffff1614156103aa576040517f08c379a00000000000000000000000000000000000000000000000000000000081526004016103a1906107fd565b60405180910390fd5b600034116103ed576040517f08c379a00000000000000000000000000000000000000000000000000000000081526004016103e490610869565b60405180910390fd5b34600160003373ffffffffffffffffffffffffffffffffffffffff1673ffffffffffffffffffffffffffffffffffffffff168152602001908152602001600020600082825461043c91906108b8565b92505081905550346002600082825461045591906108b8565b925050819055503373ffffffffffffffffffffffffffffffffffffffff167f615b82d09530cb171fb9954512b751ee6d5197d08431b056ca6e8c3d8aca6811600160003373ffffffffffffffffffffffffffffffffffffffff1673ffffffffffffffffffffffffffffffffffffffff168152602001908152602001600020546040516104e1919061061b565b60405180910390a26001905090565b60016020528060005260406000206000915090505481565b6000600254905090565b600073ffffffffffffffffffffffffffffffffffffffff82169050919050565b600061053d82610512565b9050919050565b61054d81610532565b82525050565b60006020820190506105686000830184610544565b92915050565b60008115159050919050565b6105838161056e565b82525050565b600060208201905061059e600083018461057a565b92915050565b600080fd5b6105b281610532565b81146105bd57600080fd5b50565b6000813590506105cf816105a9565b92915050565b6000602082840312156105eb576105ea6105a4565b5b60006105f9848285016105c0565b91505092915050565b6000819050919050565b61061581610602565b82525050565b6000602082019050610630600083018461060c565b92915050565b600082825260208201905092915050565b7f4572726f723a204f6e6c7920746865206f776e65722063616e20706572666f7260008201527f6d2074686973207461736b210000000000000000000000000000000000000000602082015250565b60006106a3602c83610636565b91506106ae82610647565b604082019050919050565b600060208201905081810360008301526106d281610696565b9050919050565b600081905092915050565b50565b60006106f46000836106d9565b91506106ff826106e4565b600082019050919050565b6000610715826106e7565b9150819050919050565b7f5769746864726177616c206661696c6564000000000000000000000000000000600082015250565b6000610755601183610636565b91506107608261071f565b602082019050919050565b6000602082019050818103600083015261078481610748565b9050919050565b7f4572726f723a204f776e6572206f6620646f6e6174696f6e2063616e6e6f742060008201527f706572666f726d2074686973207461736b210000000000000000000000000000602082015250565b60006107e7603283610636565b91506107f28261078b565b604082019050919050565b60006020820190508181036000830152610816816107da565b9050919050565b7f446f6e6174696f6e204572726f723a2043616e277420446f6e61746520302100600082015250565b6000610853601f83610636565b915061085e8261081d565b602082019050919050565b6000602082019050818103600083015261088281610846565b9050919050565b7f4e487b7100000000000000000000000000000000000000000000000000000000600052601160045260246000fd5b60006108c382610602565b91506108ce83610602565b9250827fffffffffffffffffffffffffffffffffffffffffffffffffffffffffffffffff0382111561090357610902610889565b5b82820190509291505056fea2646970667358221220b631b8ba9ef40e2a6244d485fe38253ce2f69e6dcc7dd3a2475843c46ad1037564736f6c634300080a0033",
  "immutableReferences": {},
  "source": "pragma solidity ^0.8.10;\r\n\r\ncontract Donation {\r\n    // owner of Donation smart contract\r\n    address private owner;\r\n    mapping(address => uint) public donations;\r\n    uint totalDonations;\r\n\r\n    // events\r\n    event LogDonation(address indexed _donator, uint256 _donationAmount);\r\n    event LogWithdrawal(address indexed _withdrawer, uint256 amount);\r\n\r\n    constructor() {\r\n        owner = msg.sender;\r\n    }\r\n\r\n    modifier isOwner() {\r\n        require(msg.sender == owner, \"Error: Only the owner can perform this task!\");\r\n        _;\r\n    }\r\n\r\n    modifier notOwner() {\r\n        require(msg.sender != owner, \"Error: Owner of donation cannot perform this task!\");\r\n        _;\r\n    }\r\n\r\n\r\n    function fetchOwner() view public returns (address) {\r\n        return owner;\r\n    }\r\n\r\n    function fetchTotal() view public returns (uint) {\r\n        return totalDonations;\r\n    }\r\n\r\n    // functions and addresses declared payable can receive ether into the contract\r\n    function makeDonation() public payable notOwner() returns (bool) {\r\n        require(msg.value > 0, \"Donation Error: Can't Donate 0!\");\r\n        // require(msg.sender != owner, \"Donation Error: Owner of donation cannot use same address to donate!\");\r\n        donations[msg.sender] += msg.value;\r\n        totalDonations += msg.value;\r\n\r\n        emit LogDonation(msg.sender, donations[msg.sender]);\r\n        return true; \r\n    }\r\n\r\n    function makeWithdrawal() public isOwner() returns (bool) {\r\n        uint amount = totalDonations;\r\n        totalDonations = 0;\r\n        \r\n        (bool success, ) = payable(owner).call{ value: amount }(\"\");\r\n        require (success, \"Withdrawal failed\");\r\n        emit LogWithdrawal(msg.sender, amount);\r\n        return true;\r\n    }\r\n}",
  "sourcePath": "C:\\Users\\Cassady\\Documents\\GitHub\\blockchain-donations\\contracts\\Donation.sol",
  "compiler": {
    "name": "solc",
    "version": "0.8.10+commit.fc410830.Emscripten.clang"
  },
  "schemaVersion": "3.4.4",
  "updatedAt": "2022-01-21T15:20:56.600Z",
  "networkType": "ethereum",
  "devdoc": {
    "kind": "dev",
    "methods": {},
    "version": 1
  },
  "userdoc": {
    "kind": "user",
    "methods": {},
    "version": 1
  }
}