{
  "contractName": "Donation",
  "abi": [
    {
      "inputs": [],
      "stateMutability": "nonpayable",
      "type": "constructor"
    },
    {
      "anonymous": false,
      "inputs": [
        {
          "indexed": true,
          "internalType": "address",
          "name": "_donator",
          "type": "address"
        },
        {
          "indexed": false,
          "internalType": "uint256",
          "name": "_donationAmount",
          "type": "uint256"
        }
      ],
      "name": "LogDonation",
      "type": "event"
    },
    {
      "anonymous": false,
      "inputs": [
        {
          "indexed": true,
          "internalType": "address",
          "name": "_withdrawer",
          "type": "address"
        },
        {
          "indexed": false,
          "internalType": "uint256",
          "name": "amount",
          "type": "uint256"
        }
      ],
      "name": "LogWithdrawal",
      "type": "event"
    },
    {
      "inputs": [
        {
          "internalType": "address",
          "name": "",
          "type": "address"
        }
      ],
      "name": "donations",
      "outputs": [
        {
          "internalType": "uint256",
          "name": "",
          "type": "uint256"
        }
      ],
      "stateMutability": "view",
      "type": "function",
      "constant": true
    },
    {
      "inputs": [],
      "name": "fetchOwner",
      "outputs": [
        {
          "internalType": "address",
          "name": "",
          "type": "address"
        }
      ],
      "stateMutability": "view",
      "type": "function",
      "constant": true
    },
    {
      "inputs": [],
      "name": "fetchTotal",
      "outputs": [
        {
          "internalType": "uint256",
          "name": "",
          "type": "uint256"
        }
      ],
      "stateMutability": "view",
      "type": "function",
      "constant": true
    },
    {
      "inputs": [],
      "name": "makeDonation",
      "outputs": [
        {
          "internalType": "bool",
          "name": "",
          "type": "bool"
        }
      ],
      "stateMutability": "payable",
      "type": "function",
      "payable": true
    },
    {
      "inputs": [],
      "name": "makeWithdrawal",
      "outputs": [
        {
          "internalType": "bool",
          "name": "",
          "type": "bool"
        }
      ],
      "stateMutability": "nonpayable",
      "type": "function"
    }
  ],
  "bytecode": "0x608060405234801561001057600080fd5b50336000806101000a81548173ffffffffffffffffffffffffffffffffffffffff021916908373ffffffffffffffffffffffffffffffffffffffff160217905550610a83806100606000396000f3fe60806040526004361061004a5760003560e01c80632f8407c21461004f5780633951b4c91461007a57806340ea0a94146100a5578063cc6cb19a146100c3578063dbf6b90414610100575b600080fd5b34801561005b57600080fd5b5061006461012b565b60405161007191906105da565b60405180910390f35b34801561008657600080fd5b5061008f610154565b60405161009c9190610610565b60405180910390f35b6100ad610310565b6040516100ba9190610610565b60405180910390f35b3480156100cf57600080fd5b506100ea60048036038101906100e5919061065c565b610577565b6040516100f791906106a2565b60405180910390f35b34801561010c57600080fd5b5061011561058f565b60405161012291906106a2565b60405180910390f35b60008060009054906101000a900473ffffffffffffffffffffffffffffffffffffffff16905090565b60008060009054906101000a900473ffffffffffffffffffffffffffffffffffffffff1673ffffffffffffffffffffffffffffffffffffffff163373ffffffffffffffffffffffffffffffffffffffff16146101e5576040517f08c379a00000000000000000000000000000000000000000000000000000000081526004016101dc90610740565b60405180910390fd5b6000600254905060008060009054906101000a900473ffffffffffffffffffffffffffffffffffffffff1673ffffffffffffffffffffffffffffffffffffffff168260405161023390610791565b60006040518083038185875af1925050503d8060008114610270576040519150601f19603f3d011682016040523d82523d6000602084013e610275565b606091505b50509050806102b9576040517f08c379a00000000000000000000000000000000000000000000000000000000081526004016102b0906107f2565b60405180910390fd5b3373ffffffffffffffffffffffffffffffffffffffff167fb4214c8c54fc7442f36d3682f59aebaf09358a4431835b30efb29d52cf9e1e91836040516102ff91906106a2565b60405180910390a260019250505090565b60008060009054906101000a900473ffffffffffffffffffffffffffffffffffffffff1673ffffffffffffffffffffffffffffffffffffffff163373ffffffffffffffffffffffffffffffffffffffff1614156103a2576040517f08c379a000000000000000000000000000000000000000000000000000000000815260040161039990610884565b60405180910390fd5b600034116103e5576040517f08c379a00000000000000000000000000000000000000000000000000000000081526004016103dc906108f0565b60405180910390fd5b60008054906101000a900473ffffffffffffffffffffffffffffffffffffffff1673ffffffffffffffffffffffffffffffffffffffff163373ffffffffffffffffffffffffffffffffffffffff161415610474576040517f08c379a000000000000000000000000000000000000000000000000000000000815260040161046b906109a8565b60405180910390fd5b34600160003373ffffffffffffffffffffffffffffffffffffffff1673ffffffffffffffffffffffffffffffffffffffff16815260200190815260200160002060008282546104c391906109f7565b9250508190555034600260008282546104dc91906109f7565b925050819055503373ffffffffffffffffffffffffffffffffffffffff167f615b82d09530cb171fb9954512b751ee6d5197d08431b056ca6e8c3d8aca6811600160003373ffffffffffffffffffffffffffffffffffffffff1673ffffffffffffffffffffffffffffffffffffffff1681526020019081526020016000205460405161056891906106a2565b60405180910390a26001905090565b60016020528060005260406000206000915090505481565b6000600254905090565b600073ffffffffffffffffffffffffffffffffffffffff82169050919050565b60006105c482610599565b9050919050565b6105d4816105b9565b82525050565b60006020820190506105ef60008301846105cb565b92915050565b60008115159050919050565b61060a816105f5565b82525050565b60006020820190506106256000830184610601565b92915050565b600080fd5b610639816105b9565b811461064457600080fd5b50565b60008135905061065681610630565b92915050565b6000602082840312156106725761067161062b565b5b600061068084828501610647565b91505092915050565b6000819050919050565b61069c81610689565b82525050565b60006020820190506106b76000830184610693565b92915050565b600082825260208201905092915050565b7f4f6e6c7920746865206f776e65722063616e20706572666f726d20746869732060008201527f7461736b00000000000000000000000000000000000000000000000000000000602082015250565b600061072a6024836106bd565b9150610735826106ce565b604082019050919050565b600060208201905081810360008301526107598161071d565b9050919050565b600081905092915050565b50565b600061077b600083610760565b91506107868261076b565b600082019050919050565b600061079c8261076e565b9150819050919050565b7f5769746864726177616c206661696c6564000000000000000000000000000000600082015250565b60006107dc6011836106bd565b91506107e7826107a6565b602082019050919050565b6000602082019050818103600083015261080b816107cf565b9050919050565b7f417320746865206f776e657220796f7520617265206e6f7420617574686f726960008201527f7a656420746f20706572666f726d2074686973207461736b0000000000000000602082015250565b600061086e6038836106bd565b915061087982610812565b604082019050919050565b6000602082019050818103600083015261089d81610861565b9050919050565b7f446f6e6174696f6e204572726f723a2043616e277420446f6e61746520302100600082015250565b60006108da601f836106bd565b91506108e5826108a4565b602082019050919050565b60006020820190508181036000830152610909816108cd565b9050919050565b7f446f6e6174696f6e204572726f723a204f776e6572206f6620646f6e6174696f60008201527f6e2063616e6e6f74207573652073616d65206164647265737320746f20646f6e60208201527f6174652100000000000000000000000000000000000000000000000000000000604082015250565b60006109926044836106bd565b915061099d82610910565b606082019050919050565b600060208201905081810360008301526109c181610985565b9050919050565b7f4e487b7100000000000000000000000000000000000000000000000000000000600052601160045260246000fd5b6000610a0282610689565b9150610a0d83610689565b9250827fffffffffffffffffffffffffffffffffffffffffffffffffffffffffffffffff03821115610a4257610a416109c8565b5b82820190509291505056fea2646970667358221220d7cf0fd72ed2da7c758026f3cc4fa621ebfd0051f6d4838af0236744043fa0b164736f6c634300080a0033",
  "immutableReferences": {},
  "source": "pragma solidity ^0.8.10;\r\n\r\ncontract Donation {\r\n    // owner of Donation smart contract\r\n    address private owner;\r\n    mapping(address => uint) public donations;\r\n    uint totalDonations;\r\n\r\n    // events\r\n    event LogDonation(address indexed _donator, uint256 _donationAmount);\r\n    event LogWithdrawal(address indexed _withdrawer, uint256 amount);\r\n\r\n    constructor() {\r\n        owner = msg.sender;\r\n    }\r\n\r\n    modifier isOwner() {\r\n        require(msg.sender == owner, \"Only the owner can perform this task\");\r\n        _;\r\n    }\r\n\r\n    modifier notOwner() {\r\n        require(msg.sender != owner, \"As the owner you are not authorized to perform this task\");\r\n        _;\r\n    }\r\n\r\n\r\n    function fetchOwner() view public returns (address) {\r\n        return owner;\r\n    }\r\n\r\n    function fetchTotal() view public returns (uint) {\r\n        return totalDonations;\r\n    }\r\n\r\n    // functions and addresses declared payable can receive ether into the contract\r\n    function makeDonation() public payable notOwner returns (bool) {\r\n        require(msg.value > 0, \"Donation Error: Can't Donate 0!\");\r\n        require(msg.sender != owner, \"Donation Error: Owner of donation cannot use same address to donate!\");\r\n        donations[msg.sender] += msg.value;\r\n        totalDonations += msg.value;\r\n        \r\n        emit LogDonation(msg.sender, donations[msg.sender]);\r\n        return true; \r\n    }\r\n\r\n    function  makeWithdrawal() public isOwner() returns (bool) {\r\n        uint amount = totalDonations;\r\n\r\n        (bool success, ) = payable(owner).call{ value: amount }(\"\");\r\n        require (success, \"Withdrawal failed\");\r\n        emit LogWithdrawal(msg.sender, amount);\r\n        return true;\r\n    }\r\n}",
  "sourcePath": "C:\\Users\\Cassady\\Documents\\GitHub\\blockchain-donations\\contracts\\Donation.sol",
  "compiler": {
    "name": "solc",
    "version": "0.8.10+commit.fc410830.Emscripten.clang"
  },
  "schemaVersion": "3.4.4",
  "updatedAt": "2022-01-20T15:26:05.895Z",
  "networkType": "ethereum",
  "devdoc": {
    "kind": "dev",
    "methods": {},
    "version": 1
  },
  "userdoc": {
    "kind": "user",
    "methods": {},
    "version": 1
  }
}