{
  "contractName": "Donation",
  "abi": [
    {
      "inputs": [],
      "stateMutability": "nonpayable",
      "type": "constructor"
    },
    {
      "inputs": [
        {
          "internalType": "address",
          "name": "",
          "type": "address"
        }
      ],
      "name": "donations",
      "outputs": [
        {
          "internalType": "uint256",
          "name": "",
          "type": "uint256"
        }
      ],
      "stateMutability": "view",
      "type": "function"
    },
    {
      "inputs": [],
      "name": "donate",
      "outputs": [
        {
          "internalType": "bool",
          "name": "",
          "type": "bool"
        }
      ],
      "stateMutability": "payable",
      "type": "function"
    },
    {
      "inputs": [],
      "name": "getTotalDonations",
      "outputs": [
        {
          "internalType": "uint256",
          "name": "",
          "type": "uint256"
        }
      ],
      "stateMutability": "view",
      "type": "function"
    }
  ],
  "bytecode": "0x608060405234801561001057600080fd5b50336000806101000a81548173ffffffffffffffffffffffffffffffffffffffff021916908373ffffffffffffffffffffffffffffffffffffffff1602179055506103b4806100606000396000f3fe6080604052600436106100345760003560e01c8063777c658f14610039578063cc6cb19a14610064578063ed88c68e146100a1575b600080fd5b34801561004557600080fd5b5061004e6100bf565b60405161005b919061019b565b60405180910390f35b34801561007057600080fd5b5061008b60048036038101906100869190610219565b6100c9565b604051610098919061019b565b60405180910390f35b6100a96100e1565b6040516100b69190610261565b60405180910390f35b6000600254905090565b60016020528060005260406000206000915090505481565b6000803411610125576040517f08c379a000000000000000000000000000000000000000000000000000000000815260040161011c906102d9565b60405180910390fd5b34600160003373ffffffffffffffffffffffffffffffffffffffff1673ffffffffffffffffffffffffffffffffffffffff16815260200190815260200160002060008282546101749190610328565b925050819055506001905090565b6000819050919050565b61019581610182565b82525050565b60006020820190506101b0600083018461018c565b92915050565b600080fd5b600073ffffffffffffffffffffffffffffffffffffffff82169050919050565b60006101e6826101bb565b9050919050565b6101f6816101db565b811461020157600080fd5b50565b600081359050610213816101ed565b92915050565b60006020828403121561022f5761022e6101b6565b5b600061023d84828501610204565b91505092915050565b60008115159050919050565b61025b81610246565b82525050565b60006020820190506102766000830184610252565b92915050565b600082825260208201905092915050565b7f43616e6e6f7420646f6e61746520300000000000000000000000000000000000600082015250565b60006102c3600f8361027c565b91506102ce8261028d565b602082019050919050565b600060208201905081810360008301526102f2816102b6565b9050919050565b7f4e487b7100000000000000000000000000000000000000000000000000000000600052601160045260246000fd5b600061033382610182565b915061033e83610182565b9250827fffffffffffffffffffffffffffffffffffffffffffffffffffffffffffffffff03821115610373576103726102f9565b5b82820190509291505056fea26469706673582212208146b16c3e2db95db6fdd346e653c81972cb6e16bae1b2c228ecb11e56adde6664736f6c634300080a0033",
  "immutableReferences": {},
  "source": "pragma solidity ^0.8.10;\r\n\r\ncontract Donation {\r\n    // owner of Donation smart contract\r\n    address private owner;\r\n    mapping(address => uint) public donations;\r\n    uint totalDonations;\r\n\r\n    constructor() {\r\n        owner = msg.sender;\r\n    }\r\n\r\n    function donate() public payable returns (bool) {\r\n        require(msg.value > 0, \"Cannot donate 0\");\r\n        donations[msg.sender] += msg.value;\r\n\r\n        return true; \r\n    }\r\n\r\n    function getTotalDonations() view public returns(uint) {\r\n        return totalDonations;\r\n    }\r\n}",
  "sourcePath": "C:\\Users\\Cassady\\Documents\\GitHub\\blockchain-donations\\contracts\\Donation.sol",
  "compiler": {
    "name": "solc",
    "version": "0.8.10+commit.fc410830.Emscripten.clang"
  },
  "schemaVersion": "3.4.4",
  "updatedAt": "2022-01-11T03:08:27.005Z",
  "devdoc": {
    "kind": "dev",
    "methods": {},
    "version": 1
  },
  "userdoc": {
    "kind": "user",
    "methods": {},
    "version": 1
  }
}