{
  "contractName": "Donation",
  "abi": [
    {
      "inputs": [],
      "stateMutability": "nonpayable",
      "type": "constructor"
    },
    {
      "anonymous": false,
      "inputs": [
        {
          "indexed": true,
          "internalType": "address",
          "name": "_donator",
          "type": "address"
        },
        {
          "indexed": false,
          "internalType": "uint256",
          "name": "_donationAmount",
          "type": "uint256"
        }
      ],
      "name": "LogDonation",
      "type": "event"
    },
    {
      "anonymous": false,
      "inputs": [
        {
          "indexed": true,
          "internalType": "address",
          "name": "_withdrawer",
          "type": "address"
        },
        {
          "indexed": false,
          "internalType": "uint256",
          "name": "amount",
          "type": "uint256"
        }
      ],
      "name": "LogWithdrawal",
      "type": "event"
    },
    {
      "inputs": [
        {
          "internalType": "address",
          "name": "",
          "type": "address"
        }
      ],
      "name": "donations",
      "outputs": [
        {
          "internalType": "uint256",
          "name": "",
          "type": "uint256"
        }
      ],
      "stateMutability": "view",
      "type": "function",
      "constant": true
    },
    {
      "inputs": [],
      "name": "fetchOwner",
      "outputs": [
        {
          "internalType": "address",
          "name": "",
          "type": "address"
        }
      ],
      "stateMutability": "view",
      "type": "function",
      "constant": true
    },
    {
      "inputs": [],
      "name": "fetchTotal",
      "outputs": [
        {
          "internalType": "uint256",
          "name": "",
          "type": "uint256"
        }
      ],
      "stateMutability": "view",
      "type": "function",
      "constant": true
    },
    {
      "inputs": [],
      "name": "makeDonation",
      "outputs": [
        {
          "internalType": "bool",
          "name": "",
          "type": "bool"
        }
      ],
      "stateMutability": "payable",
      "type": "function",
      "payable": true
    }
  ],
  "bytecode": "0x608060405234801561001057600080fd5b50336000806101000a81548173ffffffffffffffffffffffffffffffffffffffff021916908373ffffffffffffffffffffffffffffffffffffffff16021790555061062a806100606000396000f3fe60806040526004361061003f5760003560e01c80632f8407c21461004457806340ea0a941461006f578063cc6cb19a1461008d578063dbf6b904146100ca575b600080fd5b34801561005057600080fd5b506100596100f5565b6040516100669190610357565b60405180910390f35b61007761011e565b604051610084919061038d565b60405180910390f35b34801561009957600080fd5b506100b460048036038101906100af91906103d9565b6102f4565b6040516100c1919061041f565b60405180910390f35b3480156100d657600080fd5b506100df61030c565b6040516100ec919061041f565b60405180910390f35b60008060009054906101000a900473ffffffffffffffffffffffffffffffffffffffff16905090565b6000803411610162576040517f08c379a000000000000000000000000000000000000000000000000000000000815260040161015990610497565b60405180910390fd5b60008054906101000a900473ffffffffffffffffffffffffffffffffffffffff1673ffffffffffffffffffffffffffffffffffffffff163373ffffffffffffffffffffffffffffffffffffffff1614156101f1576040517f08c379a00000000000000000000000000000000000000000000000000000000081526004016101e89061054f565b60405180910390fd5b34600160003373ffffffffffffffffffffffffffffffffffffffff1673ffffffffffffffffffffffffffffffffffffffff1681526020019081526020016000206000828254610240919061059e565b925050819055503460026000828254610259919061059e565b925050819055503373ffffffffffffffffffffffffffffffffffffffff167f615b82d09530cb171fb9954512b751ee6d5197d08431b056ca6e8c3d8aca6811600160003373ffffffffffffffffffffffffffffffffffffffff1673ffffffffffffffffffffffffffffffffffffffff168152602001908152602001600020546040516102e5919061041f565b60405180910390a26001905090565b60016020528060005260406000206000915090505481565b6000600254905090565b600073ffffffffffffffffffffffffffffffffffffffff82169050919050565b600061034182610316565b9050919050565b61035181610336565b82525050565b600060208201905061036c6000830184610348565b92915050565b60008115159050919050565b61038781610372565b82525050565b60006020820190506103a2600083018461037e565b92915050565b600080fd5b6103b681610336565b81146103c157600080fd5b50565b6000813590506103d3816103ad565b92915050565b6000602082840312156103ef576103ee6103a8565b5b60006103fd848285016103c4565b91505092915050565b6000819050919050565b61041981610406565b82525050565b60006020820190506104346000830184610410565b92915050565b600082825260208201905092915050565b7f446f6e6174696f6e204572726f723a2043616e277420446f6e61746520302100600082015250565b6000610481601f8361043a565b915061048c8261044b565b602082019050919050565b600060208201905081810360008301526104b081610474565b9050919050565b7f446f6e6174696f6e204572726f723a204f776e6572206f6620646f6e6174696f60008201527f6e2063616e6e6f74207573652073616d65206164647265737320746f20646f6e60208201527f6174652100000000000000000000000000000000000000000000000000000000604082015250565b600061053960448361043a565b9150610544826104b7565b606082019050919050565b600060208201905081810360008301526105688161052c565b9050919050565b7f4e487b7100000000000000000000000000000000000000000000000000000000600052601160045260246000fd5b60006105a982610406565b91506105b483610406565b9250827fffffffffffffffffffffffffffffffffffffffffffffffffffffffffffffffff038211156105e9576105e861056f565b5b82820190509291505056fea264697066735822122094593c047dc5c090399664d4f22b40c123bf84cdd0b43c38d511787b4d9d35b164736f6c634300080a0033",
  "immutableReferences": {},
  "source": "pragma solidity ^0.8.10;\r\n\r\ncontract Donation {\r\n    // owner of Donation smart contract\r\n    address private owner;\r\n    mapping(address => uint) public donations;\r\n    uint totalDonations;\r\n\r\n    // events\r\n    event LogDonation(address indexed _donator, uint256 _donationAmount);\r\n    event LogWithdrawal(address indexed _withdrawer, uint256 amount);\r\n\r\n    constructor() {\r\n        owner = msg.sender;\r\n    }\r\n\r\n\r\n    function fetchOwner() view public returns (address) {\r\n        return owner;\r\n    }\r\n\r\n    function fetchTotal() view public returns (uint) {\r\n        return totalDonations;\r\n    }\r\n\r\n    function makeDonation() public payable returns (bool) {\r\n        require(msg.value > 0, \"Donation Error: Can't Donate 0!\");\r\n        require(msg.sender != owner, \"Donation Error: Owner of donation cannot use same address to donate!\");\r\n        donations[msg.sender] += msg.value;\r\n        totalDonations += msg.value;\r\n        \r\n        emit LogDonation(msg.sender, donations[msg.sender]);\r\n        return true; \r\n    }\r\n}",
  "sourcePath": "C:\\Users\\Cassady\\Documents\\GitHub\\blockchain-donations\\contracts\\Donation.sol",
  "compiler": {
    "name": "solc",
    "version": "0.8.10+commit.fc410830.Emscripten.clang"
  },
  "schemaVersion": "3.4.4",
  "updatedAt": "2022-01-19T02:39:35.580Z",
  "networkType": "ethereum",
  "devdoc": {
    "kind": "dev",
    "methods": {},
    "version": 1
  },
  "userdoc": {
    "kind": "user",
    "methods": {},
    "version": 1
  }
}