{
  "contractName": "Donation",
  "abi": [
    {
      "inputs": [],
      "stateMutability": "nonpayable",
      "type": "constructor"
    },
    {
      "anonymous": false,
      "inputs": [
        {
          "indexed": true,
          "internalType": "address",
          "name": "_donator",
          "type": "address"
        },
        {
          "indexed": false,
          "internalType": "uint256",
          "name": "_donationAmount",
          "type": "uint256"
        }
      ],
      "name": "LogDonation",
      "type": "event"
    },
    {
      "anonymous": false,
      "inputs": [
        {
          "indexed": true,
          "internalType": "address",
          "name": "_withdrawer",
          "type": "address"
        },
        {
          "indexed": false,
          "internalType": "uint256",
          "name": "amount",
          "type": "uint256"
        }
      ],
      "name": "LogWithdrawal",
      "type": "event"
    },
    {
      "inputs": [
        {
          "internalType": "address",
          "name": "",
          "type": "address"
        }
      ],
      "name": "donations",
      "outputs": [
        {
          "internalType": "uint256",
          "name": "",
          "type": "uint256"
        }
      ],
      "stateMutability": "view",
      "type": "function",
      "constant": true
    },
    {
      "inputs": [],
      "name": "fetchOwner",
      "outputs": [
        {
          "internalType": "address",
          "name": "",
          "type": "address"
        }
      ],
      "stateMutability": "view",
      "type": "function",
      "constant": true
    },
    {
      "inputs": [],
      "name": "makeDonation",
      "outputs": [
        {
          "internalType": "bool",
          "name": "",
          "type": "bool"
        }
      ],
      "stateMutability": "payable",
      "type": "function",
      "payable": true
    },
    {
      "inputs": [],
      "name": "getTotalDonations",
      "outputs": [
        {
          "internalType": "uint256",
          "name": "",
          "type": "uint256"
        }
      ],
      "stateMutability": "view",
      "type": "function",
      "constant": true
    }
  ],
  "bytecode": "0x608060405234801561001057600080fd5b50336000806101000a81548173ffffffffffffffffffffffffffffffffffffffff021916908373ffffffffffffffffffffffffffffffffffffffff160217905550610611806100606000396000f3fe60806040526004361061003f5760003560e01c80632f8407c21461004457806340ea0a941461006f578063777c658f1461008d578063cc6cb19a146100b8575b600080fd5b34801561005057600080fd5b506100596100f5565b604051610066919061033e565b60405180910390f35b61007761011e565b6040516100849190610374565b60405180910390f35b34801561009957600080fd5b506100a26102db565b6040516100af91906103a8565b60405180910390f35b3480156100c457600080fd5b506100df60048036038101906100da91906103f4565b6102e5565b6040516100ec91906103a8565b60405180910390f35b60008060009054906101000a900473ffffffffffffffffffffffffffffffffffffffff16905090565b6000803411610162576040517f08c379a00000000000000000000000000000000000000000000000000000000081526004016101599061047e565b60405180910390fd5b60008054906101000a900473ffffffffffffffffffffffffffffffffffffffff1673ffffffffffffffffffffffffffffffffffffffff163373ffffffffffffffffffffffffffffffffffffffff1614156101f1576040517f08c379a00000000000000000000000000000000000000000000000000000000081526004016101e890610536565b60405180910390fd5b34600160003373ffffffffffffffffffffffffffffffffffffffff1673ffffffffffffffffffffffffffffffffffffffff16815260200190815260200160002060008282546102409190610585565b925050819055503373ffffffffffffffffffffffffffffffffffffffff167f615b82d09530cb171fb9954512b751ee6d5197d08431b056ca6e8c3d8aca6811600160003373ffffffffffffffffffffffffffffffffffffffff1673ffffffffffffffffffffffffffffffffffffffff168152602001908152602001600020546040516102cc91906103a8565b60405180910390a26001905090565b6000600254905090565b60016020528060005260406000206000915090505481565b600073ffffffffffffffffffffffffffffffffffffffff82169050919050565b6000610328826102fd565b9050919050565b6103388161031d565b82525050565b6000602082019050610353600083018461032f565b92915050565b60008115159050919050565b61036e81610359565b82525050565b60006020820190506103896000830184610365565b92915050565b6000819050919050565b6103a28161038f565b82525050565b60006020820190506103bd6000830184610399565b92915050565b600080fd5b6103d18161031d565b81146103dc57600080fd5b50565b6000813590506103ee816103c8565b92915050565b60006020828403121561040a576104096103c3565b5b6000610418848285016103df565b91505092915050565b600082825260208201905092915050565b7f446f6e6174696f6e204572726f723a2043616e277420446f6e61746520302100600082015250565b6000610468601f83610421565b915061047382610432565b602082019050919050565b600060208201905081810360008301526104978161045b565b9050919050565b7f446f6e6174696f6e204572726f723a204f776e6572206f6620646f6e6174696f60008201527f6e2063616e6e6f74207573652073616d65206164647265737320746f20646f6e60208201527f6174652100000000000000000000000000000000000000000000000000000000604082015250565b6000610520604483610421565b915061052b8261049e565b606082019050919050565b6000602082019050818103600083015261054f81610513565b9050919050565b7f4e487b7100000000000000000000000000000000000000000000000000000000600052601160045260246000fd5b60006105908261038f565b915061059b8361038f565b9250827fffffffffffffffffffffffffffffffffffffffffffffffffffffffffffffffff038211156105d0576105cf610556565b5b82820190509291505056fea264697066735822122013784439bb323f8906fc4d23b7b5ba03161f649cfe0eec19f60023b35c6e1d9964736f6c634300080a0033",
  "immutableReferences": {},
  "source": "pragma solidity ^0.8.10;\r\n\r\ncontract Donation {\r\n    // owner of Donation smart contract\r\n    address private owner;\r\n    mapping(address => uint) public donations;\r\n    uint totalDonations;\r\n\r\n    // events\r\n    event LogDonation(address indexed _donator, uint256 _donationAmount);\r\n    event LogWithdrawal(address indexed _withdrawer, uint256 amount);\r\n\r\n    constructor() {\r\n        owner = msg.sender;\r\n    }\r\n\r\n\r\n    function fetchOwner() view public returns (address) {\r\n        return owner;\r\n    }\r\n\r\n    function makeDonation() public payable returns (bool) {\r\n        require(msg.value > 0, \"Donation Error: Can't Donate 0!\");\r\n        require(msg.sender != owner, \"Donation Error: Owner of donation cannot use same address to donate!\");\r\n        donations[msg.sender] += msg.value;\r\n\r\n        emit LogDonation(msg.sender, donations[msg.sender]);\r\n        return true; \r\n    }\r\n\r\n    function getTotalDonations() view public returns(uint) {\r\n        return totalDonations;\r\n    }\r\n}",
  "sourcePath": "C:\\Users\\Cassady\\Documents\\GitHub\\blockchain-donations\\contracts\\Donation.sol",
  "compiler": {
    "name": "solc",
    "version": "0.8.10+commit.fc410830.Emscripten.clang"
  },
  "schemaVersion": "3.4.4",
  "updatedAt": "2022-01-15T17:34:57.057Z",
  "networkType": "ethereum",
  "devdoc": {
    "kind": "dev",
    "methods": {},
    "version": 1
  },
  "userdoc": {
    "kind": "user",
    "methods": {},
    "version": 1
  }
}