{
  "contractName": "Donation",
  "abi": [
    {
      "inputs": [],
      "stateMutability": "nonpayable",
      "type": "constructor"
    },
    {
      "inputs": [
        {
          "internalType": "address",
          "name": "",
          "type": "address"
        }
      ],
      "name": "donations",
      "outputs": [
        {
          "internalType": "uint256",
          "name": "",
          "type": "uint256"
        }
      ],
      "stateMutability": "view",
      "type": "function",
      "constant": true
    },
    {
      "inputs": [],
      "name": "fetchOwner",
      "outputs": [
        {
          "internalType": "address",
          "name": "",
          "type": "address"
        }
      ],
      "stateMutability": "view",
      "type": "function",
      "constant": true
    },
    {
      "inputs": [],
      "name": "makeDonation",
      "outputs": [
        {
          "internalType": "bool",
          "name": "",
          "type": "bool"
        }
      ],
      "stateMutability": "payable",
      "type": "function",
      "payable": true
    },
    {
      "inputs": [],
      "name": "getTotalDonations",
      "outputs": [
        {
          "internalType": "uint256",
          "name": "",
          "type": "uint256"
        }
      ],
      "stateMutability": "view",
      "type": "function",
      "constant": true
    }
  ],
  "bytecode": "0x608060405234801561001057600080fd5b50336000806101000a81548173ffffffffffffffffffffffffffffffffffffffff021916908373ffffffffffffffffffffffffffffffffffffffff16021790555061043d806100606000396000f3fe60806040526004361061003f5760003560e01c80632f8407c21461004457806340ea0a941461006f578063777c658f1461008d578063cc6cb19a146100b8575b600080fd5b34801561005057600080fd5b506100596100f5565b6040516100669190610222565b60405180910390f35b61007761011e565b6040516100849190610258565b60405180910390f35b34801561009957600080fd5b506100a26101bf565b6040516100af919061028c565b60405180910390f35b3480156100c457600080fd5b506100df60048036038101906100da91906102d8565b6101c9565b6040516100ec919061028c565b60405180910390f35b60008060009054906101000a900473ffffffffffffffffffffffffffffffffffffffff16905090565b6000803411610162576040517f08c379a000000000000000000000000000000000000000000000000000000000815260040161015990610362565b60405180910390fd5b34600160003373ffffffffffffffffffffffffffffffffffffffff1673ffffffffffffffffffffffffffffffffffffffff16815260200190815260200160002060008282546101b191906103b1565b925050819055506001905090565b6000600254905090565b60016020528060005260406000206000915090505481565b600073ffffffffffffffffffffffffffffffffffffffff82169050919050565b600061020c826101e1565b9050919050565b61021c81610201565b82525050565b60006020820190506102376000830184610213565b92915050565b60008115159050919050565b6102528161023d565b82525050565b600060208201905061026d6000830184610249565b92915050565b6000819050919050565b61028681610273565b82525050565b60006020820190506102a1600083018461027d565b92915050565b600080fd5b6102b581610201565b81146102c057600080fd5b50565b6000813590506102d2816102ac565b92915050565b6000602082840312156102ee576102ed6102a7565b5b60006102fc848285016102c3565b91505092915050565b600082825260208201905092915050565b7f446f6e6174696f6e204572726f723a2043616e277420446f6e61746520302100600082015250565b600061034c601f83610305565b915061035782610316565b602082019050919050565b6000602082019050818103600083015261037b8161033f565b9050919050565b7f4e487b7100000000000000000000000000000000000000000000000000000000600052601160045260246000fd5b60006103bc82610273565b91506103c783610273565b9250827fffffffffffffffffffffffffffffffffffffffffffffffffffffffffffffffff038211156103fc576103fb610382565b5b82820190509291505056fea2646970667358221220c7549889a4cb22dac5b46c425c2155eb22211d1dd1b6da8fd9b286db982d3dfb64736f6c634300080a0033",
  "immutableReferences": {},
  "source": "pragma solidity ^0.8.10;\r\n\r\ncontract Donation {\r\n    // owner of Donation smart contract\r\n    address private owner;\r\n    mapping(address => uint) public donations;\r\n    uint totalDonations;\r\n\r\n    constructor() {\r\n        owner = msg.sender;\r\n    }\r\n\r\n\r\n    function fetchOwner() view public returns (address) {\r\n        return owner;\r\n    }\r\n    \r\n    function makeDonation() public payable returns (bool) {\r\n        require(msg.value > 0, \"Donation Error: Can't Donate 0!\");\r\n        donations[msg.sender] += msg.value;\r\n\r\n        return true; \r\n    }\r\n\r\n    function getTotalDonations() view public returns(uint) {\r\n        return totalDonations;\r\n    }\r\n}",
  "sourcePath": "C:\\Users\\Cassady\\Documents\\GitHub\\blockchain-donations\\contracts\\Donation.sol",
  "compiler": {
    "name": "solc",
    "version": "0.8.10+commit.fc410830.Emscripten.clang"
  },
  "schemaVersion": "3.4.4",
  "updatedAt": "2022-01-11T03:54:52.597Z",
  "networkType": "ethereum",
  "devdoc": {
    "kind": "dev",
    "methods": {},
    "version": 1
  },
  "userdoc": {
    "kind": "user",
    "methods": {},
    "version": 1
  }
}