{
  "contractName": "Donation",
  "abi": [
    {
      "inputs": [],
      "stateMutability": "nonpayable",
      "type": "constructor"
    },
    {
      "anonymous": false,
      "inputs": [
        {
          "indexed": true,
          "internalType": "address",
          "name": "_donator",
          "type": "address"
        },
        {
          "indexed": false,
          "internalType": "uint256",
          "name": "_donationAmount",
          "type": "uint256"
        }
      ],
      "name": "LogDonation",
      "type": "event"
    },
    {
      "anonymous": false,
      "inputs": [
        {
          "indexed": true,
          "internalType": "address",
          "name": "_withdrawer",
          "type": "address"
        },
        {
          "indexed": false,
          "internalType": "uint256",
          "name": "amount",
          "type": "uint256"
        }
      ],
      "name": "LogWithdrawal",
      "type": "event"
    },
    {
      "inputs": [
        {
          "internalType": "address",
          "name": "",
          "type": "address"
        }
      ],
      "name": "donations",
      "outputs": [
        {
          "internalType": "uint256",
          "name": "",
          "type": "uint256"
        }
      ],
      "stateMutability": "view",
      "type": "function",
      "constant": true
    },
    {
      "inputs": [
        {
          "internalType": "uint256",
          "name": "",
          "type": "uint256"
        }
      ],
      "name": "donators",
      "outputs": [
        {
          "internalType": "address",
          "name": "",
          "type": "address"
        }
      ],
      "stateMutability": "view",
      "type": "function",
      "constant": true
    },
    {
      "inputs": [],
      "name": "fetchOwner",
      "outputs": [
        {
          "internalType": "address",
          "name": "",
          "type": "address"
        }
      ],
      "stateMutability": "view",
      "type": "function",
      "constant": true
    },
    {
      "inputs": [],
      "name": "fetchTotal",
      "outputs": [
        {
          "internalType": "uint256",
          "name": "",
          "type": "uint256"
        }
      ],
      "stateMutability": "view",
      "type": "function",
      "constant": true
    },
    {
      "inputs": [],
      "name": "makeDonation",
      "outputs": [
        {
          "internalType": "bool",
          "name": "",
          "type": "bool"
        }
      ],
      "stateMutability": "payable",
      "type": "function",
      "payable": true
    },
    {
      "inputs": [],
      "name": "makeWithdrawal",
      "outputs": [
        {
          "internalType": "bool",
          "name": "",
          "type": "bool"
        }
      ],
      "stateMutability": "nonpayable",
      "type": "function"
    },
    {
      "inputs": [],
      "name": "resetDonations",
      "outputs": [
        {
          "internalType": "bool",
          "name": "",
          "type": "bool"
        }
      ],
      "stateMutability": "nonpayable",
      "type": "function"
    }
  ],
  "bytecode": "0x608060405234801561001057600080fd5b50336000806101000a81548173ffffffffffffffffffffffffffffffffffffffff021916908373ffffffffffffffffffffffffffffffffffffffff1602179055506001600481905550610c73806100686000396000f3fe6080604052600436106100705760003560e01c806340ea0a941161004e57806340ea0a94146100f6578063ac62f56614610114578063cc6cb19a14610151578063dbf6b9041461018e57610070565b8063113c1735146100755780632f8407c2146100a05780633951b4c9146100cb575b600080fd5b34801561008157600080fd5b5061008a6101b9565b604051610097919061074e565b60405180910390f35b3480156100ac57600080fd5b506100b5610264565b6040516100c291906107aa565b60405180910390f35b3480156100d757600080fd5b506100e061028d565b6040516100ed919061074e565b60405180910390f35b6100fe61049e565b60405161010b919061074e565b60405180910390f35b34801561012057600080fd5b5061013b60048036038101906101369190610800565b6106de565b60405161014891906107aa565b60405180910390f35b34801561015d57600080fd5b5061017860048036038101906101739190610859565b610711565b6040516101859190610895565b60405180910390f35b34801561019a57600080fd5b506101a3610729565b6040516101b09190610895565b60405180910390f35b600080600090505b60045481101561025c5760006002600083815260200190815260200160002060009054906101000a900473ffffffffffffffffffffffffffffffffffffffff1690506000600160008373ffffffffffffffffffffffffffffffffffffffff1673ffffffffffffffffffffffffffffffffffffffff16815260200190815260200160002081905550508080610254906108df565b9150506101c1565b506001905090565b60008060009054906101000a900473ffffffffffffffffffffffffffffffffffffffff16905090565b60008060009054906101000a900473ffffffffffffffffffffffffffffffffffffffff1673ffffffffffffffffffffffffffffffffffffffff163373ffffffffffffffffffffffffffffffffffffffff161461031e576040517f08c379a0000000000000000000000000000000000000000000000000000000008152600401610315906109ab565b60405180910390fd5b60006003549050600060038190555060006103376101b9565b905080610379576040517f08c379a000000000000000000000000000000000000000000000000000000000815260040161037090610a17565b60405180910390fd5b60008060009054906101000a900473ffffffffffffffffffffffffffffffffffffffff1673ffffffffffffffffffffffffffffffffffffffff16836040516103c090610a68565b60006040518083038185875af1925050503d80600081146103fd576040519150601f19603f3d011682016040523d82523d6000602084013e610402565b606091505b5050905080610446576040517f08c379a000000000000000000000000000000000000000000000000000000000815260040161043d90610ac9565b60405180910390fd5b3373ffffffffffffffffffffffffffffffffffffffff167fb4214c8c54fc7442f36d3682f59aebaf09358a4431835b30efb29d52cf9e1e918460405161048c9190610895565b60405180910390a26001935050505090565b60008060009054906101000a900473ffffffffffffffffffffffffffffffffffffffff1673ffffffffffffffffffffffffffffffffffffffff163373ffffffffffffffffffffffffffffffffffffffff161415610530576040517f08c379a000000000000000000000000000000000000000000000000000000000815260040161052790610b5b565b60405180910390fd5b60003411610573576040517f08c379a000000000000000000000000000000000000000000000000000000000815260040161056a90610bc7565b60405180910390fd5b34600160003373ffffffffffffffffffffffffffffffffffffffff1673ffffffffffffffffffffffffffffffffffffffff16815260200190815260200160002060008282546105c29190610be7565b925050819055503360026000600460008154809291906105e1906108df565b91905055815260200190815260200160002060006101000a81548173ffffffffffffffffffffffffffffffffffffffff021916908373ffffffffffffffffffffffffffffffffffffffff16021790555034600360008282546106439190610be7565b925050819055503373ffffffffffffffffffffffffffffffffffffffff167f615b82d09530cb171fb9954512b751ee6d5197d08431b056ca6e8c3d8aca6811600160003373ffffffffffffffffffffffffffffffffffffffff1673ffffffffffffffffffffffffffffffffffffffff168152602001908152602001600020546040516106cf9190610895565b60405180910390a26001905090565b60026020528060005260406000206000915054906101000a900473ffffffffffffffffffffffffffffffffffffffff1681565b60016020528060005260406000206000915090505481565b6000600354905090565b60008115159050919050565b61074881610733565b82525050565b6000602082019050610763600083018461073f565b92915050565b600073ffffffffffffffffffffffffffffffffffffffff82169050919050565b600061079482610769565b9050919050565b6107a481610789565b82525050565b60006020820190506107bf600083018461079b565b92915050565b600080fd5b6000819050919050565b6107dd816107ca565b81146107e857600080fd5b50565b6000813590506107fa816107d4565b92915050565b600060208284031215610816576108156107c5565b5b6000610824848285016107eb565b91505092915050565b61083681610789565b811461084157600080fd5b50565b6000813590506108538161082d565b92915050565b60006020828403121561086f5761086e6107c5565b5b600061087d84828501610844565b91505092915050565b61088f816107ca565b82525050565b60006020820190506108aa6000830184610886565b92915050565b7f4e487b7100000000000000000000000000000000000000000000000000000000600052601160045260246000fd5b60006108ea826107ca565b91507fffffffffffffffffffffffffffffffffffffffffffffffffffffffffffffffff82141561091d5761091c6108b0565b5b600182019050919050565b600082825260208201905092915050565b7f4572726f723a204f6e6c7920746865206f776e65722063616e20706572666f7260008201527f6d2074686973207461736b210000000000000000000000000000000000000000602082015250565b6000610995602c83610928565b91506109a082610939565b604082019050919050565b600060208201905081810360008301526109c481610988565b9050919050565b7f526573657474696e67206f6620646f6e6174696f6e73206661696c6564000000600082015250565b6000610a01601d83610928565b9150610a0c826109cb565b602082019050919050565b60006020820190508181036000830152610a30816109f4565b9050919050565b600081905092915050565b50565b6000610a52600083610a37565b9150610a5d82610a42565b600082019050919050565b6000610a7382610a45565b9150819050919050565b7f5769746864726177616c206661696c6564000000000000000000000000000000600082015250565b6000610ab3601183610928565b9150610abe82610a7d565b602082019050919050565b60006020820190508181036000830152610ae281610aa6565b9050919050565b7f4572726f723a204f776e6572206f6620646f6e6174696f6e2063616e6e6f742060008201527f706572666f726d2074686973207461736b210000000000000000000000000000602082015250565b6000610b45603283610928565b9150610b5082610ae9565b604082019050919050565b60006020820190508181036000830152610b7481610b38565b9050919050565b7f446f6e6174696f6e204572726f723a2043616e277420446f6e61746520302100600082015250565b6000610bb1601f83610928565b9150610bbc82610b7b565b602082019050919050565b60006020820190508181036000830152610be081610ba4565b9050919050565b6000610bf2826107ca565b9150610bfd836107ca565b9250827fffffffffffffffffffffffffffffffffffffffffffffffffffffffffffffffff03821115610c3257610c316108b0565b5b82820190509291505056fea2646970667358221220ddc07b618dd89b308fd78eeab215ec5dd05c8acb172fc5b8095ee918d6e8f4f164736f6c634300080a0033",
  "immutableReferences": {},
  "source": "pragma solidity ^0.8.10;\r\n\r\ncontract Donation {\r\n    // owner of Donation smart contract\r\n    address private owner;\r\n    mapping(address => uint) public donations;\r\n    mapping(uint => address) public donators;\r\n    uint totalDonations;\r\n    uint totalDonators;\r\n\r\n    // events\r\n    event LogDonation(address indexed _donator, uint256 _donationAmount);\r\n    event LogWithdrawal(address indexed _withdrawer, uint256 amount);\r\n\r\n    constructor() {\r\n        owner = msg.sender;\r\n        totalDonators = 1;\r\n    }\r\n\r\n    modifier isOwner() {\r\n        require(msg.sender == owner, \"Error: Only the owner can perform this task!\");\r\n        _;\r\n    }\r\n\r\n    modifier notOwner() {\r\n        require(msg.sender != owner, \"Error: Owner of donation cannot perform this task!\");\r\n        _;\r\n    }\r\n\r\n\r\n    function fetchOwner() view public returns (address) {\r\n        return owner;\r\n    }\r\n\r\n    function fetchTotal() view public returns (uint) {\r\n        return totalDonations;\r\n    }\r\n\r\n    // functions and addresses declared payable can receive ether into the contract\r\n    function makeDonation() public payable notOwner() returns (bool) {\r\n        require(msg.value > 0, \"Donation Error: Can't Donate 0!\");\r\n        // require(msg.sender != owner, \"Donation Error: Owner of donation cannot use same address to donate!\");\r\n        donations[msg.sender] += msg.value;\r\n        donators[totalDonators++] = msg.sender;\r\n\r\n        totalDonations += msg.value;\r\n\r\n        emit LogDonation(msg.sender, donations[msg.sender]);\r\n        return true; \r\n    }\r\n\r\n    function makeWithdrawal() public isOwner() returns (bool) {\r\n        uint amount = totalDonations;\r\n        totalDonations = 0;\r\n        \r\n        bool isReset = resetDonations();\r\n        require(isReset, \"Resetting of donations failed\");\r\n\r\n        (bool success, ) = payable(owner).call{ value: amount }(\"\");\r\n        require (success, \"Withdrawal failed\");\r\n        emit LogWithdrawal(msg.sender, amount);\r\n        return true;\r\n    }\r\n\r\n    function resetDonations() public returns (bool) {\r\n        for(uint i = 0; i < totalDonators; i++) {\r\n            address toReset = donators[i];\r\n            donations[toReset] = 0;\r\n        }\r\n        \r\n        return true;\r\n    }\r\n}",
  "sourcePath": "C:\\Users\\Cassady\\Documents\\GitHub\\blockchain-donations\\contracts\\Donation.sol",
  "compiler": {
    "name": "solc",
    "version": "0.8.10+commit.fc410830.Emscripten.clang"
  },
  "schemaVersion": "3.4.4",
  "updatedAt": "2022-01-22T18:30:05.376Z",
  "networkType": "ethereum",
  "devdoc": {
    "kind": "dev",
    "methods": {},
    "version": 1
  },
  "userdoc": {
    "kind": "user",
    "methods": {},
    "version": 1
  }
}